:100000000C945C000C9479000C9479000C947900A9
:100010000C9479000C9479000C9479000C9479007C
:100020000C9479000C9479000C9479000C9479006C
:100030000C9479000C9479000C9479000C9479005C
:100040000C9465010C9479000C9479000C9479005F
:100050000C9479000C9479000C9479000C9479003C
:100060000C9479000C947900000000080002010053
:100070000003040700000000000000000000000072
:10008000250028002B0000000000240027002A0083
:10009000040404040404040402020202020203032E
:1000A0000303030301020408102040800102040836
:1000B000102001020408102011241FBECFEFD8E049
:1000C000DEBFCDBF11E0A0E0B1E0EAE5F4E002C0A0
:1000D00005900D92A634B107D9F721E0A6E4B1E06E
:1000E00001C01D92A135B207E1F70E94AF010C9447
:1000F0002B020C94000090E0FC01EC55FF4F249182
:1001000080579F4FFC018491882399F090E0880FDD
:10011000991FFC01EA57FF4FA591B491FC01E458E7
:10012000FF4F859194918FB7F894EC91E22BEC936B
:100130008FBF089590E0FC01E859FF4F2491FC0126
:10014000EC55FF4F3491FC01E057FF4FE491EE2353
:10015000C9F0222339F0233001F1A8F4213019F13C
:10016000223029F1F0E0EE0FFF1FE458FF4FA59178
:10017000B4918FB7F894EC91611126C030953E236D
:100180003C938FBF08952730A9F02830C9F0243060
:1001900049F7809180008F7D03C0809180008F7728
:1001A00080938000DFCF84B58F7784BDDBCF84B5AB
:1001B0008F7DFBCF8091B0008F778093B000D2CF3E
:1001C0008091B0008F7DF9CF3E2BDACF3FB7F89406
:1001D00080914B0190914C01A0914D01B0914E0145
:1001E00026B5A89B05C02F3F19F00196A11DB11D92
:1001F0003FBFBA2FA92F982F8827BC01CD01620FCE
:10020000711D811D911D42E0660F771F881F991F88
:100210004A95D1F708958F929F92AF92BF92CF9255
:10022000DF92EF92FF924B015C010E94E6006B01AE
:100230007C010E94E6006C197D098E099F09683EC9
:10024000734081059105A8F321E0821A9108A10865
:10025000B10888EEC80E83E0D81EE11CF11C8114A1
:100260009104A104B10429F7FF90EF90DF90CF90A3
:10027000BF90AF909F908F900895EF92FF921F9341
:10028000CF93DF9397E0899F70011124D0E0C0E005
:1002900012E0F701EC0FFD1FE050FF4F6081812F4E
:1002A0000E949A0080914F01909150018A309105EF
:1002B00014F41F5FFBCF2196C730D10551F7DF91B2
:1002C000CF911F91FF90EF9008951F920F920FB65C
:1002D0000F9211242F933F938F939F93AF93BF93CC
:1002E0008091470190914801A0914901B0914A0144
:1002F0003091460123E0230F2D3758F50196A11DBB
:10030000B11D209346018093470190934801A0932B
:100310004901B0934A0180914B0190914C01A09109
:100320004D01B0914E010196A11DB11D80934B016D
:1003300090934C01A0934D01B0934E01BF91AF91AA
:100340009F918F913F912F910F900FBE0F901F9013
:10035000189526E8230F0296A11DB11DD2CF7894DF
:1003600084B5826084BD84B5816084BD85B58260BA
:1003700085BD85B5816085BD80916E00816080936B
:100380006E001092810080918100826080938100D4
:1003900080918100816080938100809180008160E4
:1003A000809380008091B10084608093B10080913F
:1003B000B00081608093B00080917A008460809367
:1003C0007A0080917A00826080937A0080917A002E
:1003D000816080937A0080917A00806880937A00AF
:1003E0001092C10082E00E947B0083E00E947B00AB
:1003F00084E00E947B0085E00E947B0086E00E94F2
:100400007B0087E00E947B0088E00E947B0089E0FF
:100410000E947B001092500110924F0180E00E94D8
:100420003D0100E010E068EE73E080E090E00E94A3
:100430000B01C0914F01D09150018C2F0E943D01C2
:100440002196D0935001C0934F010115110559F326
:0A0450000E940000E8CFF894FFCFEF
:10045A000101010101010000010100000000010188
:10046A000001010001010101010000010001010078
:10047A000001010100010100010101000101010166
:10048A000101010100000000010101010101010156
:06049A0001010100010157
:00000001FF
